:020000040000FA
:100000000000000082317A2A8231A22AB201B301B3
:10001000B401B401A412CE20D33E0319A4162D3E80
:10002000C63E031804320A3E031CF5330732F33E82
:100030000318F133063E031CEE330A3EB0000430D1
:10004000B100B235B30DB40DB50DB10BFA333008B4
:10005000B204A30303197228CE20C63E031804324B
:100060000A3E031C7228EA33F33E03187228063E48
:10007000031C72280A3EE233B201B301B401B50198
:10008000A412CE20D33E0319A4162D3EC63E03185B
:10009000F8330A3E031CF533B000AF01AE01AD01E9
:1000A0000A30AC003A2230082C07B2002D08B30009
:1000B000030103180130B3072E08B400030103182D
:1000C0000130B4072F08B500030103180130B5074C
:1000D000A30303197228CE20C63E031803320A3E3A
:1000E0000318DA33A41E0B32B209B309B409B509F7
:1000F000B20A0319B30A0319B40A0319B50A32087C
:100100000800A301B200B301A01123080319A01530
:100110000430A200330E912033089120320E91203A
:1001200032080F39F63E0318073E0A3EB728A301EE
:10013000B200B301A01123080319A0150530A200D5
:100140002730B1001030B0200330B100E830B020CB
:10015000B1016430B020B1010A30B020320807325A
:10016000B0003308AD003208AC0022222C08AC00ED
:10017000A2030319A0112308031903322202031852
:1001800007322C08031DA011A0190232303EC928E5
:100190000800A11C08001A0008000800C91F02324C
:1001A00012000800480847040319C70A8030471A9C
:1001B000C8064719C806C718C806480DC70DC80D98
:1001C00047080800B101B000FF30B007031CB107B9
:1001D000031C08000330AD00E630F020F533AD011C
:1001E000AC000000023000000310AC3B0301AD3B4B
:1001F0000318F93308004008BD004406CD00C308C9
:1002000003196132BF08031961324308BF027F300E
:1002100003180432BF07031C58320332BF07031808
:1002200057324208BB004108BC00BD17C417183044
:10023000CE00C201C101C001023203180C324608CF
:100240003B024508031C450F3C024408031C440FB5
:100250003D02031C0B324608BB024508031C450F38
:10026000BC024408031C440FBD020314C20DC10D9F
:10027000C00DBB0DBC0DBD0DCE0BDF33C01B083256
:10028000BF0803192232CD0CBF03CE0ACD0DD533E2
:1002900003180C324608BB024508031C450FBC027C
:1002A0004408031C440FBD02031C0C32C20F0A3267
:1002B000C10F0832C00F0632C00CC10CC20CBF0AFD
:1002C000031906320C32CC1504324C15BF0103322F
:1002D000CC14FF30BF00C201C1018030C000CD1B73
:1002E0000132C01308003F08CE004008BF0042089A
:1002F000C0003F08C200C20DCE0CC20CCC01C20D22
:10030000CE0D031C8E294C158030CC06031D8E2982
:100310004C14CE01C201C101C0010D324E0A0319B5
:1003200094290314C20C07320310C20C031D9A292E
:10033000CC140132CC15CC190432CC1C0F324C1920
:1003400007327F30C200FF30C100C000BF002B3237
:100350008030C2000132C2010030F6334C18FB334A
:10036000BF019F304E0203189F297E304E02031CAE
:10037000AB299E304E020319C4290310C20CC10CD4
:10038000C00CBF0CCE0AF5334C1D0D32BF09C0099D
:10039000C109C209BF0A0319C00A0319C10A031916
:1003A000C20AC21FD8333F080800BF00C001C10104
:1003B000C201CD130F32CD13C21F0C32C209C109C5
:1003C000C009BF09BF0F0532C00F0332C10A0319AC
:1003D000C20ACD179630CE00C20803190932083080
:1003E000CE074008BF004108C0004208C1001532D6
:1003F000C108031D12320830CE024008031D093225
:100400000830CE023F08031D03324208CE000F32EF
:10041000BF01C1003F08C000BF01C11B063203106D
:10042000BF0DC00DC10DCE03F833CD1FC1133F0862
:10043000C2004E08BF004108CE004008C1004E086F
:10044000C0000800B301B2011030B6002D0DB20D8E
:10045000B30D3008B2023108B33B0318053230083F
:10046000B2073108B33D0310AC0DAD0DB60BEE3342
:100470002C0808002030B600BB01BC01BD01BE0144
:1004800003102C1C512A3208BB0733080318330F02
:10049000BC0734080318340FBD0735080318350F9F
:1004A000BE07BE0CBD0CBC0CBB0CAF0CAE0CAD0C37
:1004B000AC0CB60BE53308001030B800AD01AC0150
:1004C000B70CB60C031C04323008AC073108AD3D44
:1004D000AD0CAC0CB30CB20CB80BF2333208080004
:1004E00040010800A3018030C9003C28A3018030EE
:1004F000C9000628DF3084002730850080010130E4
:1005000084020030853B1F300502031DF733403065
:10051000CC00A0017E01B801C301CE01BB01C60120
:10052000D101BC01C701D201E8015301900194013E
:1005300040010330C8004530C70002308031E2205E
:100540008531692D4001C43084002630850027089C
:100550001A002C081A002D081A004A0880000030E2
:1005600042019D1801304001CA00003042011D19AE
:1005700001304001CA0482310319C12A42011D120F
:100580001D16003054019D1801304001CA00003092
:1005900054011D1901304001CA0482310319D32AC4
:1005A00054011D121D1683314E010F084001891E92
:1005B000262B45016808033E840021308501853DD6
:1005C00042011908800045016808033E840021307B
:1005D0008501853D00084001A7000D3027028331C9
:1005E000031D152B45016808033E84002130850159
:1005F000853D8001213085006830840021308700EE
:100600000330860040016430AC00810803190432D5
:1006100016001A00AC0BF9338001CF154501E80133
:100620004A01EF0140018331252B4501E80A4A01C7
:100630000830EF0064304501680283314001031D3A
:10064000252B4501E8034001CF14AD3383314E0122
:100650000F084001891F5D2B4D010530D600450173
:10066000E90883314001031D462B54011908450157
:10067000E7007E30670283314001031D432B4501B3
:100680006708DD00E90A400183315C2B45016908F8
:10069000CD3E840021308501853D5401190880003C
:1006A0004501E90A0A30690283314001031D5B2BD1
:1006B0004F164501E9014001C93300304E010F1AC0
:1006C00001304001CA000030D1190130CA05833120
:1006D00003199D2B4A016A08F13E840022308501EE
:1006E000853D0008EB00EB08833140010319812BA5
:1006F0004A016B0842019A004A01EA0A400183312B
:100700009C2B42010A309A004A014B30EE00400116
:10071000D1114E01191283314001511E9B2B5112F0
:100720000130AD00F4308031F02014174E019912E1
:1007300042019D019E014001C03300304E010F1A5D
:1007400001304001CA000130D1190030CA0583319F
:100750000319AC2B4E01191283314E010F084001D1
:10076000091FCD2B0A304B0145028331400103188C
:10077000CD2B4B0145088B3E840023308501853D00
:10078000000854019A004B01C50A0A304502833122
:100790004001031DCD2B4E01191384314E010C086D
:1007A0004001891EC02C4E018C124D01D108400120
:1007B000031D06324D01D208833140010319E52B98
:1007C00001304D01D1020030D23B4D01B1088331DF
:1007D00040010319ED2B4D01B1034D01B0088331E8
:1007E00040010319F82B4D01B00340018431C02CA6
:1007F0004D010530B0004A01EC084001031D0632EE
:100800004A01ED088431400103190B2C01304A01E3
:10081000EC020030ED3B4B01B3084001031D0632F2
:100820004B01B4088431400103191B2C01304B01EA
:10083000B3020030B43B4B01B208843140010319CC
:10084000232C4B01B2034D01AC084001031D0632BD
:100850004D01AD08843140010319332C01304D01A5
:10086000AC020030AD3B4A01EE088431400103196F
:100870003B2C4A01EE034B01C908843140010319A6
:10088000432C4B01C9034B01CB084001031D063229
:100890004B01CC08843140010319532C01304B012A
:1008A000CB020030CC3B4B01B0088431400103192E
:1008B0005B2C4B01B0034D01AE084001031D063215
:1008C0004D01AF088431400103196B2C01304D01FB
:1008D000AE020030AF3B4B01B50884314001031933
:1008E000792C4B01B503B50884314001031D792CE7
:1008F00053144A01EF08843140010319A92C4A011D
:10090000EF03EF0884314001031DA92C4501E808DD
:10091000843140010319A92C45016808033E840075
:1009200021308501853D8001E80121308500683056
:100930008400213087000330860040016430AC0021
:1009400081080319043216001A00AC0BF933800138
:10095000CF154D01D608843140010319C02C4D013B
:10096000D603D60884314001031DC02C4501E90897
:10097000843140010319C02C4501E90140014F16A3
:1009800085314E010F084001091D3C2D4D01AB087A
:10099000843140010319F02C4E010F114D01AB03BE
:1009A000843140015519E12C4D012B089F3E8400F4
:1009B00023308501853D00084301960040018431C4
:1009C000EB2C4D012B08DB3E840023308501853D57
:1009D00000084301960043011910400185313C2D68
:1009E0004D01A908853140010319132D4D01290836
:1009F000AB00A9014001551101307E01160285317D
:100A00004001031D0A2D85314301190840010918D1
:100A10000A2DF9337E010130920096014E010F1527
:100A2000400185313C2D4D01AA0885314001031953
:100A3000362D4D012A08AB00AA01400155150130A1
:100A40007E01120285314001031D2D2D85314301A8
:100A50001908400109182D2DF9337E01920101304A
:100A600096004E010F15400185313C2D4E010F11AE
:100A700019117E0192019601853142011D08400144
:100A8000891C452D42011D121D16853154011D087A
:100A90004001891C4E2D54011D121D1685317E0109
:100AA0003F084001091C5B2D7E013F10853140014C
:100AB000531A5B2DD217C4308400263085001200F3
:100AC000A7001200AC001200AD000008CA00090027
:100AD00008007D011430C6001230C5007E011530BB
:100AE000A2001630A30011309D007D010C30CD0016
:100AF00040018D14D1309400B530930075309200D0
:100B000098119911981098139A124301013090008E
:100B10008F130F17101240019A1443018C01901685
:100B200047010C30DF004B010A30C5009C014E012B
:100B30008C1296164B019C309D0048309F008030EF
:100B40009E004D01B6012830B5000130B8002C30B0
:100B5000B7000330BA001E30B9000130BC00E030ED
:100B6000BB000430B2004E01FF30B4004D0105302F
:100B7000D8000430D900DB013230DA00DD017830F2
:100B8000DC004E0116167E013E148B170B178531C3
:100B90004001D21FCD2D933168239F31C72791315A
:100BA00096214D010230DE004A01EC084001031D90
:100BB00006324A01ED08853140010319F32D8531D4
:100BC0004001CF1DE52D9731E5279131D8218531A1
:100BD000D018F32D8531D118F32D8531D21FF22D88
:100BE00093316823E1338931F621013043012F022B
:100BF000FE3003192E02863140010318052E8F3175
:100C0000B82791312721A031C1200130D018003000
:100C1000CA000130D1180030CA0586310319302EC0
:100C2000A03100200130B100F4308031E320863162
:100C3000CF1D1C2E9731E5279F31C7274D01DE03BD
:100C4000DE08863140010319282EAE338631302E5E
:100C50004B011230B1004001913160219131D82116
:100C600043013230B00047010630D60086314001E2
:100C7000D01CD82EA03179204D01AD01C830AC0078
:100C800040010030D1190130CA004D012C082D045B
:100C900086314001031D4E2E0301031D013040012A
:100CA000CA0586310319572E9131D821E9334D01F8
:100CB000AD013230AC004D012C082D0486314001CD
:100CC000031D642E0301031D01304001CA000130E1
:100CD00051190030CA0586310319762E8631CF1D91
:100CE000732E9731E5279131D821E5334701023042
:100CF000DA004001893127214D01AD01C830AC0037
:100D00004D01AC084001031D06324D01AD0886318E
:100D100040010319952E86314001CF1D942E973145
:100D2000E5278631521A952EEB3389312D214D015D
:100D3000AD01C830AC004D01AC084001031D0632C6
:100D40004D01AD08863140010319AF2E86314001B7
:100D5000CF1DAE2E9731E5278631AF2EEC33043010
:100D600047016702863140010318BC2E4B012A302F
:100D7000B10040018631D42E06304701670286312A
:100D80004001031DC92E4B011C30B10040018631CA
:100D9000D32E4B011E30B10040019131602147013B
:100DA00067084B01B1004001913160218731182F54
:100DB0008631D11CE12E4B012330B100400191312D
:100DC00060218631511CEA2E4B012630B1004001D2
:100DD000913160218631D21CF32E4B011D30B100C0
:100DE0004001913160218631501DFC2E4B011A309B
:100DF000B1004001913160218731D01D052F4B0199
:100E00001930B1004001913160214D01AD01323006
:100E1000AC004D01AC084001031D06324D01AD0888
:100E2000873140010319182F40019131D821F13346
:100E3000A031002091312721933118234701E1018E
:100E4000E0014001893151214D015A084301B000B0
:100E50004D015D084701E1004D015C084701E000DC
:100E60004301AC014001B13139218731CF1F3D2F02
:100E70008A312422CF1388311228063047016702B5
:100E800087314001031D592F013047015702873137
:100E90004001031D572F913174214B011C30B100CB
:100EA00040019131602191312721933118238831FC
:100EB0001228013047015A0287314001031D942F47
:100EC00001304701570287314001031D922F9131B4
:100ED00096214D010230AD005830AC0004304D0178
:100EE00065020130031800304001CA004D012C0892
:100EF0002D0487314001031D7F2F0301031D0130A5
:100F00004001CA0587310319882F9131D821E63372
:100F10004B017D30B1004001913160219131272199
:100F20009331182388311228023047015A02873141
:100F30004001031DB92F013047015702873140019D
:100F4000031DA62FA1310221893151214D01DF0856
:100F5000873140010319B12F4D01DF034001873173
:100F6000B72F4D015908DF00400194319E2488318C
:100F70001228033047015A0288314001031D12280C
:100F800001304701570288314001031D0C2891317F
:100F900096214D010230AD005830AC0004304D01B7
:100FA00065020130031800304001CA004D012C08D1
:100FB0002D0487314001031DDF2F0301031D013084
:100FC0004001CA0587310319E82F9131D821E63352
:100FD0004B017E30B1004001913160219131D82127
:100FE000643047015B074001BA01B900BA0D4701FF
:100FF0005B08373E840024308501853D00084001B0
:10100000A700270839074B01B10040019131602149
:10101000913127219331182347010630D600400132
:1010200094318D24033047015A028831400103185E
:10103000842801304D01580288314001031D2428C5
:10104000BD31B0258831842802304D0158028831E5
:101050004001031D2F28BD31AA2588318428033083
:101060004D01580288314001031D3A28BD31A425A5
:101070008831842804304D01580288314001031D15
:101080004728BD31A425BD31AA25883184280530E3
:101090004D01580288314001031D5228BD319E2563
:1010A0008831842806304D01580288314001031DE3
:1010B0005F28BD319E25BD31AA258831842807309F
:1010C0004D01580288314001031D6C28BD319E2519
:1010D000BD31A4258831842808304D01580288315B
:1010E0004001031D7B28BD319E25BD31A425BD31A6
:1010F000AA258831842809304D01580288314001E1
:10110000031D8428BD3198258831D21F8928933149
:1011100068234701D6088831400103199128470107
:10112000D6034D01EC08883140010319A1284D0177
:10113000EC03EC0888314001031DA1284701E101BF
:10114000E001470161086004883140010319AA28C1
:101150000301031D0130CA000130D1180030CA0557
:10116000893103191D294301B00888314001031D4D
:10117000C32853178D3105254D015A084301B0008E
:1011800040018831C5284301B0034D015D08470186
:10119000E1004D015C084701E00040019F31C72795
:1011A0004A016C086D0488314001031DD9280301F0
:1011B000031D01304001CA000130D0180030CA05BB
:1011C00088310319E9288831CF1DE8289731E527B0
:1011D000E7338931D01C1929521251114D01AD014B
:1011E000C830AC0088314001D219F82889312D214E
:1011F000A03179204D01AC084001031D06324D019C
:10120000AD08893140010319192989314001CF1DE9
:101210000B299731E5270030521A0130CA000030FF
:1012200051190130CA048931031918298931192942
:10123000E133A03100208931222901304701E00249
:101240000030E13B4001893151218731302F470186
:101250007330E90040018931302947016F30E900DE
:1012600047015130E800EA014001A03136204D012C
:10127000AD016430AC0040010030D1190130CA002A
:101280004D012C082D0489314001031D492903011A
:10129000031D01304001CA05893103195029EB3380
:1012A000080094316F244E015030B500FF30B40077
:1012B000013047015A0289314001031D64294E0162
:1012C000B40140018931AD29023047015A02893108
:1012D0004001031D87294601A508893140010319F2
:1012E00082294601253584008501850D2330840738
:1012F0002430853D00084E01B2001000B3004001CB
:10130000893184294E01B40140018931AD2903306E
:1013100047015A0289314001031DAA294701DB0810
:10132000893140010319A52947015B3584008501F6
:10133000850D233084072430853D00084E01B2001E
:101340001000B30040018931A7294E01B4014001CA
:101350008931AC294E01B4014001B0313C209731B4
:101360007A274D01A70A0C30270289314001031C5E
:10137000BB294D01A7014D0127352707E800680863
:10138000DB3E840023308501853D4E013B08800013
:101390004D01E80A6808DB3E840023308501853D65
:1013A0004E01390880004D01E80A6808DB3E8400E0
:1013B00023308501853D4E013A0880004D012430DF
:1013C000AA004001943188244D01AA0889314001C6
:1013D000031DE4294D01AB0889314001031DE429B7
:1013E00001308031E22094315824080014147E0129
:1013F0004E14520182308C00893152010C08400198
:10140000091FFC294101E3309E0041309D0002305C
:1014100040018031E22041019D148A3141011D08C3
:10142000400189180D2A000041011B084301AE004C
:1014300041011C084301AF0041019D017E014E1096
:1014400052018C01400108004D01E10147015F0894
:101450004D01E00047011930DF0040019131962134
:101460009F31C7279431662494316F244D01023097
:10147000AF005830AE004D012E082F048A314001D4
:10148000031D442A0301031D01304001CA0003303B
:101490004D0165020130031800304001CA058A3150
:1014A0000319552A9131D821E6334D010830D50072
:1014B0004001A631B8264B014F30B10040019131B7
:1014C00060219131D8214D010530E1004001D31652
:1014D0004D01AF019630AE004D012F082E048A3128
:1014E00040010319752A0301031D0130CA005A3057
:1014F0004D0161020130031800304001CA058A31F4
:1015000003199B2A0B304D0161028A314001031CF3
:101510008B2A4D01E1014D01E10A4001D312503007
:101520004D0161074B01B1004001913160214D0136
:10153000AF017D30AE005A304D0161020130031819
:1015400000304001CA000130D31A0030CA058D3185
:101550000319012DCF13B13139218A31561EB62A14
:101560004D010830E1004001CF1756128A31D61ED6
:10157000BF2A4D010730E1004001CF17D6128A3152
:10158000561FC82A4D010130E1004001CF17561304
:101590008A31D61FD12A4D010230E1004001CF1718
:1015A000D6138A31571CE12A50304D0161074B0197
:1015B000B1004001913160219131D8219131272131
:1015C00057108D31CF1F002D01304D0161028B313D
:1015D0004001031D012BA031002094317824943167
:1015E0008024933118230730B100D0308031E320BC
:1015F0004D01E10160084701DF00400108008C3126
:10160000FA2C02304D0161028B314001031D0F2B7A
:10161000A031002053138D3105258C31FA2C033075
:101620004D0161028B314001031D642B4B015C3085
:10163000B1004001913160219131D8214A016C08FB
:101640006D048B314001031D272B0301031D013065
:101650004001CA000130D0180030CA058B3103198F
:10166000342B91311821EA338B31D0183F2B4B01A9
:101670004530B1004001913160218B31622B47012F
:101680004F30E800E9014001A03136204B014630DF
:10169000B1004001913160214D010130AF00F430C3
:1016A000AE004D01AE084001031D06324D01AF08EA
:1016B0008B3140010319602B40019131D821F13366
:1016C000BD31B92D8C31FA2C04304D0161028B31C2
:1016D0004001031D742B53164B015C30B1004001D7
:1016E000913160218C31FA2C05304D0161028B3132
:1016F0004001031DC42B4B015C30B100400191310E
:1017000060219131D8214A016C086D048B31400170
:10171000031D8C2B0301031D01304001CA00013061
:10172000D0180030CA058B310319992B913118213B
:10173000EA33521147015730E8003030E900EA013E
:101740004001A03136204D01AF01FA30AE004D010D
:10175000AE084001031D06324D01AF088B31400138
:101760000319B92B4001913118218B315219B92B32
:10177000EE338B31521DC22B4B014230B100400180
:10178000913160218C31FA2C06304D0161028B3190
:101790004001031DD12B8931F6218F31B8278C31BF
:1017A000FA2C07304D0161028B314001031DDC2B07
:1017B000BD31B92D8C31FA2C08304D0161028C31CC
:1017C0004001031D2E2C4B015C30B10040019131D2
:1017D00060219131D8214A016C086D048B314001A0
:1017E000031DF42B0301031D01304001CA00013029
:1017F000D0180030CA058C310319012C9131182101
:10180000EA338C31D0180C2C4B014530B10040012B
:10181000913160218C312C2C47014C30E800E901DA
:101820004001A03136204B014630B10040019131DA
:1018300060214D01AF016430AE004D01AE084001A2
:10184000031D06324D01AF088C31400103192C2CC9
:1018500040019131D821F1338C31FA2C09304D01FE
:1018600061028C314001031D942C4B015C30B100AE
:101870004001913160219131D8214A016C086D04F9
:101880008C314001031D462C0301031D0130400132
:10189000CA000130D0180030CA058C310319532C0E
:1018A00091311821EA338C31D0185E2C4B01453030
:1018B000B1004001913160218C31922CD21252132F
:1018C00047015330E800E9014001A03136204D01C5
:1018D000AF016430AE004D01AE084001031D063279
:1018E0004D01AF088C3140010319902C400191311A
:1018F00018218C31D21E842C4B011F30B1004001C5
:10190000913160218C31902C8C31521F8F2C4B01E6
:101910002030B1004001913160218C31902CDB33BB
:101920009131D8218C31FA2C0A304D0161028C3171
:101930004001031DE92C4B015C30B10040019131A5
:1019400060219131D8214A016C086D048C3140012D
:10195000031DAC2C0301031D01304001CA000130FE
:10196000D0180030CA058C310319B92C91311821D7
:10197000EA338C31D018C42C4B014530B100400102
:10198000913160218C31E72C47015830E800E901A2
:101990004001A03136204B014630B1004001913169
:1019A00060214D010130AF00F430AE004D01AE08B2
:1019B0004001031D06324D01AF088C31400103196F
:1019C000E52C40019131D821F133BD31B92D8C3155
:1019D000FA2C0B304D0161028C314001031DFA2CB1
:1019E0004B015C30B1004001913160219131D8212F
:1019F00090311B20913127214D01AF016430AE00A1
:101A00004001913118218A316C2A47015F084D014C
:101A1000E00047010C30DF004D01E301E20140012D
:101A200053168D318D1D152DD3179131962104300C
:101A30004D0165028D3140010318212D9131D821CE
:101A4000F6338D31531B2C2D4B010D30B10040016D
:101A5000913160219131D8219031B8204F0C4D0146
:101A600003186214031C62108D3140014F1C3E2D7F
:101A70004B010F30B10040018D31412D4B010E3033
:101A8000B10040018D31531B492D913160219131BD
:101A9000D8218D314F1C672D9031FD204F0C4D0109
:101AA0000318E214031CE2108D314001531B672D13
:101AB0008D314F1C612D4B011130B10040018D3132
:101AC000642D4B011030B100400191316021913102
:101AD000D8218931F621023043012F023130031918
:101AE0002E028D3140010318772D4D016215013012
:101AF00043012F02FE3003192E028D3140010318DD
:101B0000832D4D01E215023043012F028D3140013A
:101B1000031C952D031D0732313043012E028D31F8
:101B20004001031C952D4D01621640018D31531B60
:101B3000AA2D913127218F31B827913127214B01CF
:101B40003230B1004001913160219131D8216430AF
:101B50008031E2209F31C727D1124A01EC084001B1
:101B6000031D06324A01ED088D3140010319D92DBC
:101B700040019131D8218D31CF1DC02D9731E527FE
:101B80000030D6180130CA000130D11A0030CA0521
:101B90008D310319D52D8D31531BD42D4B0133308D
:101BA000B100400191316021D1168D31D018D92D6D
:101BB000D433500C890C4D010318E217031CE213B7
:101BC00040018310D01983144D0183186314831CC2
:101BD000631040018310501983144D018318E314DE
:101BE000831CE3104001520C890C4D010318E317CC
:101BF000031CE3138E314001531B2C2E8E31D21C5B
:101C0000072E4B014130B1004001913160218E31EE
:101C1000D01D102E4B011930B100400191316021CF
:101C20008E31501D192E4B011A30B10040019131F7
:101C300060218E31D01C242E4B011330B1004001A5
:101C4000913160218E312A2E4B011230B1004001BA
:101C5000913160219131D821511347014230E80080
:101C6000E9014001A03136204D01AD013230AC0018
:101C70004D01AC084001031D06324D01AD088E3107
:101C8000400103194D2E8E314001CF1D492E973151
:101C9000E5278E31511B4D2EEB338E31511F582EBF
:101CA0004B013430B1004D01631540018E315D2E82
:101CB0004B013530B1004D01631140018E31531B92
:101CC000652E913160219131D821D11352108E317E
:101CD000511FA32E47014530E800E9014001A03122
:101CE00036204D01AD013230AC004D01AC08400151
:101CF000031D06324D01AD088E31400103198D2EB2
:101D00008E314001CF1D862E9731E5278E31D11BB4
:101D10008D2E8E3152188D2EE8338E31D11F982E94
:101D20004B013F30B1004D01631740018E319B2EB6
:101D30004B014030B10040018E31531BA32E913135
:101D400060219131D821A03100204D01AD016430D6
:101D5000AC004D01AC084001031D06324D01AD0839
:101D60008E3140010319BD2E40019131D8218E31B1
:101D7000CF1DBC2E9731E527EC338E31511FF92E44
:101D8000511347014230E800E9014001A0313620FB
:101D90004D01AD013230AC004D01AC084001031DD6
:101DA00006324D01AD088E3140010319E12E8E310E
:101DB0004001CF1DDD2E9731E5278E31511BE12EDD
:101DC000EB338E31511FEC2E4B013630B1004D01FB
:101DD000E31140018E31F12E4B013730B1004D013E
:101DE000E31540018E31531BF92E91316021913161
:101DF000D8218F314D0162084001891F182F9F3172
:101E0000C7274A01EC084001031D06324A01ED08CC
:101E10008F3140010319182F40019131D8218F31A2
:101E2000CF1D142F9731E5278F31D018182FE933A4
:101E30000C0C4D0103186316031C63128F31400113
:101E4000531B852F8F310C1C2B2F4B013830B100C9
:101E500040018F312E2F4B013930B10040019131BB
:101E60006021913127218F310C18852F4B013A3099
:101E7000B1004001913160214D01AD01FA30AC005B
:101E80004301B201B1014D01AC084001031D06320E
:101E90004D01AD088F3140010319662F400191318A
:101EA000D8218F310C1C582F4301B10A0319B20AF3
:101EB0004301B2088F314001031D662F1F304301DB
:101EC00031028F3140010318662FDD334301B20820
:101ED000031D06321F3031028F314001031C7D2F5C
:101EE0004B013B30B1004001913160219131D8214B
:101EF0004D01E31640018F31852F4B013C30B1007D
:101F00004001913160219131D8218F31D61CA22F0F
:101F1000A03100204D01AD016430AC004D01AC0892
:101F20004001031D06324D01AD088F3140010319F8
:101F3000A22F40019131D8218F31CF1DA12F973190
:101F4000E527EC338F31531BAD2F4B011630B10019
:101F5000400191316021913127218F31D31BB22F64
:101F6000933118234D0160084701DF00400108004C
:101F70004B010C30B10040019131602143012F0829
:101F80004001AD0043012E084001AC00B101A73073
:101F9000B000823122224B01B10040019131602119
:101FA0004B010A30B10040019131602143012F08FB
:101FB0004001AD0043012E084001AC00B101A73043
:101FC000B0008231222232084301B10031084001C1
:101FD0008131D5219A30C6009930C5000530C40042
:101FE0008330C3008031FB20813173214B01B1006C
:101FF0004001913160210F3043013105B2003208B8
:1020000040018131D5218F30C600C230C500553026
:10201000C4007F30C3008031FB20813173214B012C
:10202000B1004001913160214B010B30B100400102
:10203000913160210800913174214B012730B100AA
:102040004001913160218931F6218F31B8279431D7
:10205000662494316F244D010A30D500400194313B
:1020600088244D010130AD00F430AC004D01AC08C6
:102070004001031D06324D01AD08903140010319A6
:10208000452840019131D821F133CF134D01133050
:10209000AD008830AC0040019131D821B1313921F7
:1020A0009031CF1F542808004D012D082C04903189
:1020B0004001031DB6288931F6219F31C7274A0107
:1020C0006C086D0490314001031D68280301031D55
:1020D00001304001CA000130D0180030CA059031EB
:1020E000031978289031CF1D77289731E527E733FA
:1020F0009031D01CA328521251114D01AD01C830AE
:10210000AC004001A03179204D01AC084001031D15
:1021100006324D01AD08903140010319A3289031DA
:102120004001CF1D95289731E5270030521A013024
:10213000CA00003051190130CA0490310319A22895
:102140009031A328E133A0310020023043012F0257
:10215000313003192E02903140010318B128BD31EE
:10216000B92D4D012730AD001030AC004001933344
:102170004F1047010130D800063047015802903116
:1021800040010318FB289A1601308031E220BD314E
:10219000162501308031E220DA013730D900BD3117
:1021A00071259A12DA089031031DD72808005A0ABF
:1021B0009031031DDC28080001304701580290319E
:1021C0004001031DE9285A084201ED004001903109
:1021D000F12842016D0840015A0290310319F1289B
:1021E000080014308031E22001304701D8079031D7
:1021F0004001031CBC284F1408004F149A120130F0
:102200008031E220BD31162501308031E220DA0133
:102210003730D900BD317125DA089131031D1129FC
:1022200008005A0A9131031D162908004F100800B2
:102230009131CF1D1D299731E5279131D21F2229D8
:10224000933168239131D821A7319E2708004B0193
:102250000330B4002030B3004001913147210030F9
:10226000D3180130CA004B013408330491314001C6
:1022700003193C290301031D0130CA0491310319DC
:1022800046299131182191314721E9330800D314AF
:1022900002304D0165029131400103185029D310DD
:1022A00004304D01650291314001031D5F294B014E
:1022B0002E082F0291314001031D5F29D310080021
:1022C0004B012E08743E840023308501853D310882
:1022D0008000AE0A0A302E0291314001031D72299E
:1022E0004B01AE0140010800913196214D010230B1
:1022F000AD005830AC0004304B01300201300318FF
:1023000000304001CA004D012C082D0491314001DC
:10231000031D8C290301031D01304001CA059131C1
:10232000031995299131D821E633080091318D1D8B
:10233000AE2999114B013230B2004B01B2089131F4
:1023400040010319AE299131CF1DA8299731E52706
:102350009131D21FAD2993316823EF339915913113
:10236000D1214D010130E5004501E90140014F1245
:102370004B010A30C500540108309F0040309B00DB
:1023800003309C0026309E0090309D004E0199172E
:102390004B017830B200AE01AF0140011316931229
:1023A0000800D4105411D4115412D412541308003C
:1023B00092314F1E492A4F1245015D084001A70086
:1023C0007E3027020130031D0030CA0045015E083F
:1023D0004001A700270A0130031D0030CA0545014E
:1023E0005F084001A700063027020130031D0030BE
:1023F000CA05450166084001A700EF3027020130F9
:10240000031D0030CA05923103193F2A45016008B7
:102410004001A700413027029231031D122A5416B1
:1024200092313F2A403027029231031D1A2AD414D8
:1024300092313F2A3A3027029231031D222A541545
:1024400092313F2A3B3027029231031D2A2AD415AC
:1024500092313F2A3D3027029231031D322AD41691
:1024600092313F2A3F3027029231031D3F2A01302B
:102470004D01650292314001031D3F2A541721305E
:102480008500CD3084000A30AC0000301A00AC0B5F
:10249000FC339231D41C602AD4104D01E40A04307C
:1024A0006402923140010318602A4B010130C500DB
:1024B00054017E309A004E0119174B013C30B00098
:1024C00001304D01650292314001031D792A4B0113
:1024D000B20892314001031D6E2A54179231541FE5
:1024E000762A4D01E50A4B010530B00040019331D9
:1024F000172B02304D01650292314001031DA12AC4
:102500004B01B00892314001031D9E2A54124D0127
:10251000E50A4B010630B600B70147015F084B01E1
:10252000B80092314001D21F982A4B011E30B800EA
:102530004001933125234B011430B0004001933109
:10254000172B03304D01650292314001031DBA2A59
:102550004B01B00892314001031DAF2A541692314D
:10256000541EB72A4B010530B0004D01E50A400169
:102570009331172B04304D01650292314001031D48
:10258000F72A9231541CCB2A54104D010230E50039
:1025900040019231F52A4B012E082F029231400161
:1025A0000319F52A4B012F08743E8400233085015E
:1025B000853D0008B800AF0A0A302F029231400171
:1025C000031DE42A4B01AF014B010330B600B701F4
:1025D0004001933125239131D1214D01E401E50AD8
:1025E0004B013C30B000400153109331172B0530A4
:1025F0004D01650293314001031D172B4B01B008BB
:1026000093314001031D172B93310D1D082BD41658
:102610009331531C0F2B53104D010430E500400142
:102620009331D41E162B4D010430E5004001080003
:1026300093164E019913191354019E019D014001F7
:1026400099114D01E501400108005412D410BA015E
:10265000FF30B9000630B9070030BA3D4B013608EB
:102660004001B9070030BA3DB90A0319BA0A4B0153
:1026700037084001B9070030BA3D4B013808400126
:1026800039074B01B900003040013A3D4B01BA0017
:10269000BA09B909B90A0319BA0AFF30BC000630F1
:1026A000BD003608BE000130BF003708C000380842
:1026B000C1003A08C2003908C300EF30C40001303D
:1026C000C50054017E309A004E01191740010800E0
:1026D0004D01E60193314001D41F6F2B0800D41740
:1026E00054149F31C72793318D19782B913196213E
:1026F0009431662494316F244D010930D500400196
:10270000A631B8264B012130B10040019131602142
:102710004B012230B1004001913160214A016C0827
:102720006D0493314001031D972B0301031D0130FC
:102730004001CA000130D0180030CA059331031996
:10274000AB2B9331CF1DA62B9731E5279131D821A3
:10275000A7319E27E3332230850078308400BD30D6
:102760008700D83086001600031902321A00FB33A6
:102770008001A03136204D01AD013230AC004D0159
:10278000AC084001031D06324D01AD0893314001F4
:102790000319D52B93314001CF1DD02B9731E5275D
:1027A0009131D821A7319E27EA334D010130AD0088
:1027B000F430AC004001A7319E279131D8214B0164
:1027C0002F082E0293314001031DFB2B0A304D01CF
:1027D0006602933140010318FB2B4B012130B100FD
:1027E0004001913160214B012230B1004001913113
:1027F00060214D01E60A4D012D082C049431400161
:10280000031D232C4301AC014001B1313921943126
:10281000CF1F1F2C93311823A0310020D2134B015E
:10282000AF01AE014001943178240330B100E830AB
:102830008031E3208A312422CF13D41308004D01C4
:10284000AD016430AC004001B5337C010530960029
:102850001030970008309800203099001430920012
:102860002530930024309400950101309100803090
:10287000900045010130900080308E008F010430BF
:102880008D0091018C01470180308E0002308D0057
:1028900040308C0043010130970023309A009B01A7
:1028A0009C01FF309800403099004001D514080089
:1028B00047018E0145018E0143019A017C0190017F
:1028C0004001D5104D01D501400108008C14943110
:1028D000D5186C2C9431252412110C1108008C177A
:1028E0009431D518752C9431252412130C1308003B
:1028F00012158C1094318C1B7F2C943158240800B5
:102900001217981394318C18872C9431582408008E
:102910004E010F15191540010800460125084D010B
:10292000E80047015B084601A500400194319E2460
:102930004D0168084601A500400108009431662455
:102940004D01D201D1010430670294314001031CD2
:10295000AB2C4D01E7014601A50894314001031D50
:10296000B72C4D016330E70040019431C52C46017E
:10297000253584008501850D233084072430853D6D
:1029800000084E01B2001000B3004E01FF30B40049
:102990004D01E70894314001031DD22C9531C92522
:1029A0009431F82C01304D01670294314001031D30
:1029B000DD2C9531DD259431F82C02304D01670274
:1029C000943140010319EB2C03304D01670294311F
:1029D0004001031DEF2C963159269431F82C6330B9
:1029E0004D01670294314001031DF82C95316E258D
:1029F0004D013330A9004001943188244D01520823
:102A0000D4005108D3004D015208540295314001C1
:102A1000031D122D4D015108530295314001031D34
:102A2000122DF1334D015108520494314001031D20
:102A3000C82C4701D608953140010319212D953145
:102A40003B2597316F274D013330A9004001943168
:102A500088244D01AB08953140010319322D913185
:102A60001821F73301308031E220943178244D0170
:102A7000E70A400108004D01D2011430D1004001A5
:102A800095315425943188244D01D1084001031D0E
:102A900006324D01D208953140010319532D4001F2
:102AA00091311821F13308004E019630B900BB0076
:102AB000BA004001973185274D013330A90040010C
:102AC00008004E019630B900BB00BA0040019731B2
:102AD000B5274D012430AA00400108004D015208DD
:102AE000510495314001031D792D4D01D20114305F
:102AF000D1004E019630B5004D013208E900E801E1
:102B000033304D016802953140010318C82D4D0145
:102B1000693584008501850D233084072430853D87
:102B200000084E01B2001000B3004001B0313C205B
:102B30004D0168089F3E840023308501853D4E018C
:102B40003B0880004D01680A9F3E840023308501C8
:102B5000853D4E013908800002304D0168079F3ED7
:102B6000840023308501853D4E013A0880004D01E7
:102B7000E903E90895314001031DC12D4D013208DB
:102B8000E90003304D01E80795314001031C802D19
:102B900008004D015208510495314001031DD42D08
:102BA0004D01D2011430D1004E01FF30B50040017B
:102BB000B0313C209731852708004D01520851045F
:102BC00095314001031DE82D4D01D2012830D1007F
:102BD000400197316F274E01B430B5004001B0314C
:102BE0003C2096314D0151084001891D282E4D0190
:102BF000E80133304D016802963140010318262E5A
:102C00004D0168089F3E840023308501853D4E01BB
:102C10003B0880004D01680A9F3E840023308501F7
:102C2000853D4E013908800002304D0168079F3E06
:102C3000840023308501853D4E013A08800006302E
:102C40004D01E80795314001031CF92D9631582EAE
:102C50004D010330E80033304D01680296314001E8
:102C60000318582E4D0168089F3E840023308501CB
:102C7000853D4E013B0880004D01680A9F3E84005F
:102C800023308501853D4E013908800002304D0119
:102C900068079F3E840023308501853D4E013A0838
:102CA000800006304D01E80796314001031C2B2EB1
:102CB00008004D015208510496314001031D642E55
:102CC0004D01D2013230D100400197316F274E01C2
:102CD000C830B5004001B0313C204D0152084001E0
:102CE000AD004D0151084001AC00B1010330B0000E
:102CF0008231222232084D01EB006B085102E900BB
:102D00000030523BEA000330670296314001031D58
:102D1000922E4D016908333CE9006A08031C013E0C
:102D2000003CEA004D0169089F3E84002330850184
:102D3000853D4E013B0880004D01690A9F3E84009D
:102D400023308501853D4E013908800002304D0158
:102D500069079F3E840023308501853D4E013A0876
:102D600080005030B5004001B0313C204D01EA08F0
:102D7000031D06320330690296314001031CE02E28
:102D800003304D0169029F3E840023308501853D5B
:102D90004E013B08800002304D0169029F3E8400D5
:102DA00023308501853D4E01390880004D016903BE
:102DB0009F3E840023308501853D4E013A08800006
:102DC0004D01EA0897314001031D0E2F31304D01AE
:102DD00069029731400103180E2F03304D01690736
:102DE0009F3E840023308501853D4E013B088000D5
:102DF00004304D0169079F3E840023308501853DE5
:102E00004E013908800005304D0169079F3E84005E
:102E100023308501853D4E013A0880004E01143073
:102E2000B5004001B0313C204D01EA08031D0632D7
:102E30000630690297314001031C3F2F06304D01D7
:102E400069029F3E840023308501853D4E013B0889
:102E5000800005304D0169029F3E840023308501CA
:102E6000853D4E013908800004304D0169029F3EC6
:102E7000840023308501853D4E013A0880004D01D4
:102E8000EA0897314001031D6D2F2E304D01690274
:102E90009731400103186D2F06304D0169079F3EA1
:102EA000840023308501853D4E013B0880000730BA
:102EB0004D0169079F3E840023308501853D4E0109
:102EC0003908800008304D0169079F3E8400233097
:102ED0008501853D4E013A088000400108002330FD
:102EE00085009F3084003C30AC0000301A00AC0BF1
:102EF000FC33080023308500DB3084003C30AC001C
:102F000000301A00AC0BFC3308004D01E8013330EF
:102F10004D016802973140010318B42F4D01680834
:102F20009F3E840023308501853D4E013B08800093
:102F30004D01680A9F3E840023308501853D4E0186
:102F40003908800002304D0168079F3E840023301D
:102F50008501853D4E013A08800003304D01E807A8
:102F600097314001031C872F08004D01E8012430F0
:102F70004D016802973140010318E42F4D016808A4
:102F8000DB3E840023308501853D4E013B088000F7
:102F90004D01680ADB3E840023308501853D4E01EA
:102FA0003908800002304D016807DB3E8400233081
:102FB0008501853D4E013A08800003304D01E80748
:102FC00097314001031CB72F0800CF112130850035
:102FD00068308400AC01120003190232AC0FFB33DD
:102FE0002C08A7000530270297310318F82F080096
:102FF00021308500F330840021308700683086005E
:103000000530AC0016001A00AC0BFC338001BD305B
:103010008700E030860021308500F3308400160000
:103020000002031D03321200031DF9339831031D02
:103030001A28D614BD308700E6308600213085007E
:10304000F330840016000002031D03321200031D3A
:10305000F9339831031D392856154B012830B1003A
:103060004001913160219131D82191312721BD3129
:10307000B925BD308700EC30860021308500F33063
:10308000840016000002031D03321200031DF933F1
:103090009831031D4C285114BD308700F230860052
:1030A00021308500F330840016000002031D033236
:1030B0001200031DF9339831031D5F28D114BD3070
:1030C0008700F830860021308500F3308400160038
:1030D0000002031D03321200031DF9339831031D52
:1030E0007228D015BD308700FE3086002130850063
:1030F000F330840016000002031D03321200031D8A
:10310000F9339831031D85285015BE3087000430EF
:10311000860021308500F330840016000002031D74
:1031200003321200031DF9339831031D9828D2177A
:10313000BE3087000A30860021308500F3308400DD
:1031400016000002031D03321200031DF9339831EB
:10315000031DAB285115BE3087001030860021308A
:103160008500F330840016000002031D03321200B4
:10317000031DF9339831031DC128D0145011D0110B
:103180000800BE3087001630860021308500F330FD
:10319000840016000002031D03321200031DF933E0
:1031A0009831031DD4285016BE3087001C3086008D
:1031B00021308500F330840016000002031D033225
:1031C0001200031DF9339831031DE928D0164A0176
:1031D000EE014001BE30870022308600213085009C
:1031E000F330840016000002031D03321200031D99
:1031F000F9339831031DFF2850174A01EE014001B1
:10320000BE3087002830860021308500F3308400EE
:1032100016000002031D03321200031DF933993119
:10322000031DC829D51521308500F33084008001A5
:103230004701D90121308500683084001200031D48
:10324000FD3313002C301A008001213085006830D6
:1032500084004001AC01120003190232AC0FFB33B1
:103260002C08A50042010730D9004201590840014D
:1032700025029931031CC829223085006130840061
:103280002130870068308600420159084001AC00B7
:103290000130AD00AC03031902321600FB331600F7
:1032A0001A00AD0BFC3380012230850061308400B0
:1032B0001200AC000008AD002C082C3A2D04993106
:1032C000031DAB294701D90A013059029931400148
:1032D000031D722921308500F3308400823172226F
:1032E0004D01ED0002304701590299314001031DA3
:1032F000812921308500F3308400823172224D0112
:10330000EE0003304701590299314001031D902915
:1033100021308500F3308400823172224D01EF00AC
:1033200004304701590299314001031DA32921307E
:103330008500F3308400823172224E01A0004001EA
:1033400033084E01A100400121308500F330840094
:1033500080019931C12921308500F33084001200A9
:10336000031DFD33130022308700613086000430D6
:10337000AC0081080319043216001A00AC0BF933B3
:10338000800101304201D90799314001031C3529E0
:10339000BE3087002E30860021308500F330840057
:1033A00016000002031D03321200031DF9339A3187
:1033B000031DBC2A21308500F330840080014701C1
:1033C000D9014E01A401213085006830840012002B
:1033D000031DFD3313002C301A00800121308500BD
:1033E000683084004001AC01120003190232AC0FB6
:1033F000FB332C08A50042010730D90042015908CF
:10340000400125029A31031CBC2A2230850061301C
:10341000840021308700683086004201590840014D
:10342000AC000130AD00AC03031902321600FB33CF
:1034300016001A00AD0BFC3380012230850061308C
:1034400084001200AC000008AD002C082C3A2D04BA
:103450009A31031D9F2A4701D90A013059029A3136
:103460004001031D3D2A21308500F3308400823164
:1034700072224601B200400155160330470159023D
:103480009A314001031D752A21308500F3308400F4
:10349000823172224E01A600A61B06322608003C8D
:1034A0009A314001031C562A0301031D01304001DB
:1034B000CA004E0126084D0132024E0126084D0178
:1034C00032060318803A80390030031D0130400174
:1034D000CA059A310319732A4E0126084601A50030
:1034E00040019A31752A4601A5010430470159026D
:1034F0009A314001031D882A21308500F330840071
:10350000823172224E01A200400133084E01A30015
:103510000530470159029A314001031D972A213095
:103520008500F3308400823172224E01A4004001F4
:1035300021308500F330840080019A31B52A213092
:103540008500F33084001200031DFD331300223088
:103550008700613086000430AC0081080319043212
:1035600016001A00AC0BF933800101304201D90773
:1035700099314001031CFE29BE308700343086009B
:1035800021308500F330840016000002031D033251
:103590001200031DF9339A31031DD12A51174A0134
:1035A000EE014001BE3087003A30860021308500B0
:1035B000F330840016000002031D03321200031DC5
:1035C000F9339B31031DE92BD21547010730DC008D
:1035D000DD0040012130850068308400AC0112001C
:1035E00003190232AC0FFB332C08A7002708470150
:1035F0005D029B3140010318252B4701DD0A213074
:103600008500F330840021308700683086005D0833
:103610004001AC000130AD00AC03031902321600CA
:10362000FB3316001A00AD0BFC33800121308500FE
:10363000F33084001200AC000008AD002C082C3AD6
:103640002D049B310319252BC43347015C085D020F
:10365000DE0021308500F33084002130870068309F
:1036600086005C084001AC0047015E084001AD00E7
:10367000AC03031902321600FB3316001A00AD0B1F
:10368000FC33800121308500F330840082317222C6
:103690004E01A600A61B06322608003C9B314001C5
:1036A000031C542B0301031D01304001CA004E01CD
:1036B00026084D0132024E0126084D01320603183C
:1036C000803A80390030031D01304001CA059B312A
:1036D0000319712B4E0126084601A50040019B31BC
:1036E000732B4601A501043047015D074001A80185
:1036F000A700A80D2130850068308400AC011200BD
:1037000003190232AC0FFB332C08A900A8089B3127
:10371000031DDD2B290827029B310318DD2B4D01EA
:10372000E80147015D0A4201D90021308500683077
:1037300084004001AC01120003190232AC0FFB33CC
:103740002C08A50042015908400125029B31031CA9
:10375000DB2B21308500F330840021308700683076
:103760008600420159084001AC000230AD00AC03B4
:10377000031902321600FB3316001A00AD0BFC339E
:10378000800121308500F330840082317622A70049
:103790004D016808DA3E840021308501853D4001F5
:1037A000270880004D01E80A02304201D9079B3109
:1037B0004001031CA22B9B31E72B21308500DA301E
:1037C00084000B30AC0000301A00AC0BFC33460117
:1037D000B3014001BE3087004030860021308500B3
:1037E000F330840016000002031D03321200031D93
:1037F000F9339B31031DFF2BD5164E01A501400166
:10380000BE3087004630860021308500F3308400CA
:1038100016000002031D03321200031DF9339C3110
:10382000031D132C5517BE3087004C308600213005
:103830008500F330840016000002031D03321200DD
:10384000031DF9339C31031D292CD11752104A0155
:10385000EE014001BE3087005230860021308500E5
:10386000F330840016000002031D03321200031D12
:10387000F9339C31031D402C5214D1134A01EE013F
:103880004001BE3087005830860021308500F3307B
:10389000840016000002031D03321200031DF933D9
:1038A0009C31031D532CBE3087005F3086002130D1
:1038B0008500F330840016000002031D033212005D
:1038C000031DF9339C31031D702C4501E8014B01A8
:1038D0001730B100400191316021D0179131D821CA
:1038E000BE3087006530860021308500F3308400CB
:1038F00016000002031D03321200031DF9339C3130
:10390000031DA12C4B011830B10040019131602101
:103910004D01AD013230AC004D01AC084001031D3A
:1039200006324D01AD089C31400103199B2C40012A
:1039300091311821F133981110308031E22098151F
:10394000D013BE3087006B30860021308500F33005
:10395000840016000002031D03321200031DF93318
:103960009F31031D392F21308500F3308400800101
:1039700021308500683084001200031DFD331300E0
:103980002C301A00800152164701D90121308500E0
:10399000683084004001AC01120003190232AC0F00
:1039A000FB332C08A50042010730D9004201590819
:1039B000400125029F31031C0D2F2230850061300C
:1039C0008400213087006830860042015908400198
:1039D000AC000130AD00AC03031902321600FB331A
:1039E00016001A00AD0BFC338001223085006130D7
:1039F00084001200AC000008AD002C082C3A2D0405
:103A00009E31031DF02E4701D90A013059029D3124
:103A10004001031D162D21308500F33084008231D2
:103A200072224701DA0040019E31E92E023047013F
:103A300059029D314001031D282D21308500F330AE
:103A40008400823172224701DB0040019E31E92E61
:103A50000330470159029D314001031D3A2D2130A9
:103A60008500F3308400823172224701DF0040017B
:103A70009E31E92E0430470159029D314001031D5A
:103A80004C2D21308500F3308400823172224701B1
:103A9000E70040019E31E92E0530470159029D3172
:103AA0004001031D5E2D21308500F33084008231FA
:103AB00072224D01EC0040019E31E92E0630470193
:103AC00059029D314001031D892D21308500F330BD
:103AD0008400AC01120003190232AC0FFB332C0836
:103AE000A700043027029D31031C872D213085005B
:103AF000DA30840021308700F33086000A30AC00D1
:103B000081080319043216001A00AC0BF9339E31F8
:103B1000E92E0730470159029D314001031DC42D94
:103B200021308500F3308400823172224E01A600DC
:103B3000A61B06322608003C9D314001031CA22D25
:103B40000301031D01304001CA004E0126084D014A
:103B500032024E0126084D0132060318803A8039A0
:103B60000030031D01304001CA059D310319BF2DEE
:103B70004E0126084601A50040019D31C12D460198
:103B8000A50140019E31E92E0830470159029D31BF
:103B90004001031DD62D21308500F3308400823191
:103BA00072224D01D80040019E31E92E09304701B3
:103BB00059029D314001031DE82D21308500F3306D
:103BC0008400823172224D01D90040019E31E92EDC
:103BD0000A30470159029D314001031DFE2D21305D
:103BE0008500F3308400823172224D01DA004001F9
:103BF00033084D01DB0040019E31E92E0B304701B7
:103C000059029E314001031D142E21308500F330EE
:103C10008400823172224D01DC00400133084D01E5
:103C2000DD0040019E31E92E0C30470159029E31E2
:103C30004001031D262E21308500F330840082319F
:103C400072224E01A50040019E31E92E0D30470140
:103C500059029E314001031DC72E4D01B2014E0194
:103C60000130A70021308500F33084004001AC0111
:103C7000120003190232AC0FFB332C084E01A800CE
:103C80004E01280827029E3140010318C52E4D0120
:103C9000B20A223085005830840021308700F3308A
:103CA00086004E0127084001AC000230AD00AC0395
:103CB000031902321600FB3316001A00AD0BFC3359
:103CC00080012230850058308400823176224E01F6
:103CD000AB00223085005830840021308700F3305B
:103CE0008600023027074001AC000430AD00AC0371
:103CF000031902321600FB3316001A00AD0BFC3319
:103D000080012230850058308400823176224E01B5
:103D1000A900400133084E01AA002B35840085011B
:103D2000850D233084072430853D29081A002A0890
:103D30008000223085005830840021308700F33025
:103D40008600063027074001AC000230AD00AC030E
:103D5000031902321600FB3316001A00AD0BFC33B8
:103D600080012230850058308400823176224E0155
:103D7000A9002B08373E840024308501853D2908A1
:103D800080000830A70740017B339E31E92E0E30BA
:103D9000470159029E314001031DD92E2130850073
:103DA000F3308400823176224B01C60040019E31FF
:103DB000E92E0F30470159029E314001031DE82EC4
:103DC00021308500F3308400823176224B01C70018
:103DD000400121308500F330840080019F31062F9F
:103DE00021308500F33084001200031DFD331300E1
:103DF00022308700613086000430AC00810803194E
:103E0000043216001A00AC0BF93380010130420174
:103E1000D9079C314001031CD62C013047015A02BE
:103E20000130031D00304001CA00033047015A022F
:103E30000130031D00304001CA049F310319372FA0
:103E40004601A50121308500DA30840040010B30A5
:103E5000AC0000301A00AC0BFC3321308500E6309A
:103E600084000B30AC0000301A00AC0BFC33460170
:103E7000B3014001BE3087007130860021308500DB
:103E8000F330840016000002031D03321200031DEC
:103E9000F9339F31031D4D2FD214BE308700773088
:103EA000860021308500F330840016000002031DD7
:103EB00003321200031DF9339F31031D602FD51704
:103EC000BE3087007D30860021308500F3308400CD
:103ED00016000002031D03321200031DF9339F3147
:103EE000031D732F5614BE308700833086002130A7
:103EF0008500F330840016000002031D0332120017
:103F0000031DF9339F31031D8A2F5215D11352140B
:103F10004A01EE014001BE30870089308600213021
:103F20008500F330840016000002031D03321200E6
:103F3000031DF9339F31031D9E2FD216BE3087001B
:103F40008F30860021308500F33084001600000297
:103F5000031D03321200031DF9339F31031DB12FDE
:103F60005217BE3087009530860021308500F3302F
:103F7000840016000002031D03321200031DF933F2
:103F80009F31031DC52F4A01EE0140010800450184
:103F9000E8014001CF115011D011D010D6105611A8
:103FA0005311D2105110D11051124B01A00A7D01B2
:103FB0001730CB007E010F30A600420108309F0071
:103FC00044309B009C0126309E0090309D004001B3
:103FD00098114D010530B1004D01B1089F314001EC
:103FE0000319F52FA7319E27F733981514134E01A7
:103FF00099164A010230ED00EE30EC004001080055
:10400000A031D01F042808004D016430B1004001E8
:104010000030D1190130CA004D01B108A031400172
:10402000031D14280301031D0130CA05A031031923
:104030001C2891311821EB334A01EE08A0314001D0
:104040000319252891311821F733511647015030B3
:10405000E800E9014001A0313620D010D6105611F9
:104060005011D011D210D113521008004D01C83098
:10407000B10040010030D1190130CA004D01B10832
:10408000A0314001031D46280301031D0130CA056C
:10409000A03103194E2891311821EB334A01EE0863
:1040A000A03140010319572891311821F733141317
:1040B0004A01EA0122308500F13084002230870075
:1040C0007830860040017830AC0081080319043252
:1040D00016001A00AC0BF933800149014108420176
:1040E0009A004A01EA0A4001D1154E011916400111
:1040F000080051118931F62147014130E800E901FA
:1041000022308500783084001200031DFD33130037
:1041100040010230A1001230803197202C301A006B
:104120000230A100A30143012F084001B300430165
:104130002E084001B20080319A202C301A00023043
:10414000A100A3014D0163084001B3004D016208C5
:104150004001B20080319A208001A0313620013028
:1041600043012F02A0314001031CC128031D073267
:10417000FE3043012E02A0314001031CC128400142
:104180000800A031D119C1284A01EE08A031400130
:10419000031DC12847014630E800E90122308500AF
:1041A000783084001200031DFD33130040010230FB
:1041B000A100A30143012F084001B30043012E08D1
:1041C0004001B20080319A208001A03136204B019D
:1041D0004430B100400191316021A031D11DF3285C
:1041E00091311821FA334B01C830C9004B01C9087D
:1041F000A03140010319FF2891311821F733BD3157
:10420000B92D08004B01C8014001D5114D01EE0147
:10421000ED01EF01400155129F31C72791319621E1
:104220004601B2014701E2014001D5125513D513F1
:104230005610943166244D010330D5004001A6315B
:10424000B8264B017F30B10040019131602191319E
:10425000182101304B01C808031D00304001CA007D
:104260004A016D086C04A131400103193929030189
:10427000031D0130CA05A13103194F2953144B0105
:104280008530B1004001913160214B01C9014D01E0
:104290000230AF005830AE004B016330C80001302F
:1042A0004B01C808031D00304001CA000030D0187F
:1042B0000130CA05A131031967294B012830C80014
:1042C0004D01AF010830AE004001A0317920283007
:1042D0004B0148020130031D00304001CA004D016E
:1042E0002F082E04A1314001031978290301031D71
:1042F0000130CA05A1310319BB294B010130C800A7
:1043000047015430E800E9014201D9010A30420175
:104310005902A13140010318B529223085007830B7
:1043200084001200031DFD3313000230A1000508B4
:10433000A8000408A7000230A30042015908E33E88
:10434000840020308501853D00084001B200280826
:1043500085002708840080318320800101304201DC
:10436000D907A1314001031C8629A03136204D0117
:10437000AF01C830AE0001304B0148020130031DCF
:1043800000304001CA004D012F082E04A131400128
:104390000319CC290301031D0130CA05A1310319FA
:1043A000E0294B018530B100400153149131602167
:1043B0004B016330C8004D010230AF005830AE00F1
:1043C00001304B0148020130031D00304001CA009A
:1043D0000030D5190130CA05A2310319742AA03161
:1043E00000204D010730D5004001A631B8264B0111
:1043F0001330C8004D01ED08A2314001031D022A0F
:104400000301031D0130CA004D01EE08A231400135
:10441000031D0C2A0301031D0130CA05A231031933
:10442000172A4B018930B1004001913160214D01C3
:10443000ED08A2314001031D1F2A0301031D0130B5
:10444000CA0001304D01EE08031D00304001CA05CD
:10445000A2310319312A4B018730B100400191315B
:10446000602101304D01ED08031D00304001CA00FC
:104470004D01EE08A2314001031D402A0301031D36
:104480000130CA05A23103194B2A4B018830B10013
:1044900040019131602153144B017430B100C608C2
:1044A000A23140010319572A4B014608B1004001CF
:1044B000913160214B01CC01A030CB002030850030
:1044C000EF30840020308700E330860040010A305E
:1044D000AC0016001A00AC0BFC334B01CD014D01B2
:1044E0000330AF002030AE0013304B014802A23140
:1044F0004001031D9F2A913147210130D31800301C
:10450000CA004D012F082E04A231400103198A2A46
:104510000301031D0130CA04A23103199F2A4B0174
:10452000C80ACA08A2314001031D9F2A420164083B
:104530004001A700033027054B01CA00CA0A143006
:104540004B014802A3314001031D642B4B014C0871
:104550004B04A2314001031DFE2A4B01CC01C8309F
:10456000CB00CA0ACD0A4A084D013202A2314001ED
:104570000318BD2A4B010130CA000D304B014D021A
:10458000A2314001031CD72A4B016E30B10040011B
:10459000913160214B016330C8006430C9004D0186
:1045A0000230AF005830AE004001943178246330BF
:1045B0004B014802A23140010318FC2A64304B0130
:1045C0004A074001BA01B900BA0D4B014A08373E0B
:1045D000840024308501853D00084001A70027089C
:1045E00039074B01B1004001913160214D0101308B
:1045F000D5004001A631B826A331642B4B01CA086F
:10460000A33140010319642BB13139210130470135
:104610005702A3314001031D642B4D01E8010A300C
:104620004D016802A33140010318382B4D01680881
:10463000E33E840020308501853D00084001A7004D
:104640004D016808EF3E840020308501853D00085B
:104650004001A90027082902A3310319312B470182
:10466000D70101304D01E807A3314001031C0F2B96
:10467000013047015702A3314001031D622B9F31D6
:10468000C7274B01C80A0130CC009030CB007030F6
:10469000B10040019131602153144301AC08A331B2
:1046A000400103195A2B43012C084B01B100400172
:1046B000913160214D010230D5004001A631B8266C
:1046C000A331642BA131022915304B01480201307E
:1046D000031D00304001CA004B014C084B04A331BC
:1046E00040010319752B0301031D0130CA05A331D5
:1046F00003198D2B4B017130B100400191316021C4
:104700004B016330C8006430C9004D010230AF0076
:104710005830AE0040019431782415304B014802E6
:104720000130031D00304001CA000030D0180130B4
:10473000CA05A3310319F32B47015230E800E90100
:104740004201D9010A3042015902A3314001031844
:10475000D12B22308500783084001200031DFD33F8
:1047600013000230A1000508A8000408A7000230C9
:10477000A30042015908E33E840020308501853DB5
:1047800000084001B2002808850027088400803115
:104790008320800101304201D907A3314001031C6D
:1047A000A22B22308500783084001200031DFD33D7
:1047B00013002C301A000230A1004B014A084001BE
:1047C000803197202C301A000230A10043012C08C0
:1047D0004001803197208001A03136204B01C80A6A
:1047E000CC01FA30CB0016304B014802A431400115
:1047F000031D632CA431561C122CA03100204B0148
:104800007230B1004001913160214B016330C8002A
:104810006430C9004D010230AF005830AE00400195
:1048200094317824A431D51F3A2C4B017330B10058
:10483000C708A43140010319202C4B014708B100DF
:104840004001913160214D010330D5004B014A08F0
:104850004601B1004001A631B8264B01C80A40010B
:104860005516D5114B016430C9004D010230AF001F
:104870005830AE004B014C084B04A4314001031DDD
:10488000632CA03100204B017130B1004001913107
:1048900060214B016330C8006430C9004D01023013
:1048A000AF005830AE00D501400197316F274D0160
:1048B0003330A900400197317A274D012430AA00F6
:1048C00040019431882417304B014802A431400143
:1048D000031D892C4B01C908A4314001031D892CFB
:1048E000913147210130D3180030CA004D012F0803
:1048F0002E04A431400103197F2C0301031D013054
:10490000CA04A4310319892C4B010130C8004601A7
:10491000B10101304B0148020130031D003040015C
:10492000CA000030551A0130CA05A5310319492DB6
:104930004B01C80A4201D9010A3042015902A4318F
:1049400040010318BE2C42015908E33E8400203088
:104950008501853D00084001A70042015908E63E57
:10496000840021308501853D400127088000013009
:104970004201D907A4314001031C9C2C4601320896
:104980002502A5314001031D252DA03100204E0137
:10499000A408A43140010319D42C03304E01240291
:1049A000A4314001031DDC2C8C304E0122074B0149
:1049B000B1004001A5310F2D01304E012402A43178
:1049C0004001031DEB2C80304E0122074B01B1004A
:1049D0004001A5310F2D02304E012402A5314001C6
:1049E000031D0F2D4E01A50A0B302502A5314001F4
:1049F000031C022D8B304E0122074B01B1004001F8
:104A0000A5310E2D8C304E0125074001BA01B900A9
:104A1000BA0D39084E0122074B01B1004001531471
:104A2000913160214D010430D5004001A631B826F6
:104A30004B016330C8003230C9004D010230AF0075
:104A40005830AE004001A531492D9630460132075D
:104A50004001BA01B900BA0D46013208373E840060
:104A600024308501853D00084001A700270839074B
:104A70004B01B10040015314913160214B01C80A30
:104A80004D010530D500AF013230AE004001A631F6
:104A9000B82602304B0148020130031D00304001AE
:104AA000CA0001304B01C908031D00304001CA058E
:104AB000A5310319622D4B01C80A4D010130AF0029
:104AC000F430AE0003304B0148020130031D0030CA
:104AD0004001CA004D012F082E04A53140010319E1
:104AE000732D0301031D0130CA05A5310319882D5B
:104AF00085304E0122074B01B10040019131602108
:104B00004B016330C8004D010230AF005830AE0099
:104B100003304B0148020130031D00304001CA0040
:104B20000030D0180130CA05A5310319D22D470134
:104B30004330E800E9014201D9010A30420159023B
:104B4000A53140010318CC2D223085007830840037
:104B50001200031DFD3313000230A1000508A80058
:104B60000408A7000230A30042015908E33E840074
:104B700020308501853D00084001B20028088500ED
:104B80002708840080318320800101304201D90749
:104B9000A5314001031C9D2DA03136204B01C80AD0
:104BA000FA30C90004304B014802A6314001031D10
:104BB000692E913147210130D3180030CA000130ED
:104BC0004B01C908031D00304001CA04A631031976
:104BD000692EA631D51E2D2EA031002046013208A7
:104BE000A5004201D9010A3042015902A631400113
:104BF0000318152E42015908E63E84002130850134
:104C0000853D00084001A70042015908DA3E8400B2
:104C100021308501853D4001270880000130420197
:104C2000D907A5314001031CF32D82304E01220724
:104C30004B01B1004001913160214B01C80A4D0187
:104C40000630D5004001A631B8264B013230C900EC
:104C50004D010130AF00F430AE004001A631551FC8
:104C60004F2E21308500E63084000B30AC00003040
:104C70001A00AC0BFC33A031002084304E01220717
:104C80004B01B1004001913160214B016330C800FC
:104C90003230C9004D010130AF00F430AE004B019D
:104CA000C908A6314001031D692EA03100208430BF
:104CB0004E0122074B01B1004001913160214B01AF
:104CC0006330C8003230C9004D010130AF00F4300C
:104CD000AE0063304B0148020130031D003040013B
:104CE000CA0001304B01C908031D00304001CA054C
:104CF000A63103199F2E0030D6180130CA000030AB
:104D0000D0180130CA04A6310319882EA031002022
:104D1000913147210130D3180030CA004D012F08CE
:104D20002E04A63140010319972E0301031D013003
:104D3000CA04A63103199F2E4B016430C8006430A9
:104D40004B014802A6314001031DAB2E93311823BD
:104D500094317824080005304B014802A631400107
:104D6000031DB52E4B016330C8004001A131272936
:104D700001304D015502A6314001031DDA2E4D01CF
:104D80000330D200E830D1004E01B501FF30B4004D
:104D90004B014A3584008501850D2330840724307A
:104DA000853D00084E01B2001000B300B101400182
:104DB000A731972F02304D015502A6314001031D46
:104DC000FD2E4D01D2016430D1004E01FF30B40000
:104DD000C830B5004B014A3584008501850D23306C
:104DE00084072430853D00084E01B2001000B30056
:104DF0004001B0313C20A731972F03304D015502BF
:104E0000A7314001031D0E2F4D010230D200213089
:104E1000D1004E01B1014001A731972F04304D015F
:104E20005502A7314001031D272F4D01D2013F300C
:104E3000D1004E01C830B5004001AF313527B03147
:104E40003C204D010230D5004001A731972F05309D
:104E50004D015502A7314001031D3D2F4D01520860
:104E60005104A7314001031D3A2F4D010130D200FA
:104E7000FF30D1004001A731972F06304D01550278
:104E8000A7314001031D5B2F4D010130D200E830F6
:104E9000D1004E01FF30B5004001AF313527B031B0
:104EA0003C204E013908AE003A08AF003B08B00084
:104EB0004001A731972F07304D015502A73140011E
:104EC000031D7D2F01304D013207E900EA01EA0D93
:104ED000690DD1006A0DD200D10DD20DD10DD20DC8
:104EE000D10DD20DD10DD20DE030D1050130D1025E
:104EF0000030D23B4001A731972F08304D015502B9
:104F0000A7314001031D8B2F4D01D201C830D100C4
:104F10004001A731972F09304D015502A7314001BB
:104F2000031D972F4D010330D2002030D1004D01D9
:104F30005208D4005108D300400108004D01D508A3
:104F4000A7314001031DA52F08004D01510852044F
:104F5000A7314001031DAE2F0301031D01304001A5
:104F6000CA004D0152085402031D06325108530273
:104F7000A73140010319BE2F0301031D0130400179
:104F8000CA05A7310319C52F08004D015208D400E6
:104F90005108D30001305502A8314001031D972864
:104FA00001304D015202A7314001031CF32F0030A4
:104FB0004D01D11801304001CA0001304D01511896
:104FC00000304001CA05FF304E01310201300318A4
:104FD00000304001CA05A7310319F02F4E01B10A74
:104FE0004001A731F52F4E01B1034E013108B50044
:104FF000B108A7314001031DFF2F4E01B10A4E0138
:10500000B508A8314001031D0C284E01B901BA01B1
:10501000BB014001A8310E28B0313C209731B527A3
:1050200001304D015202A8314001031C1D284E01E0
:10503000FF30B5004001A83121284D0151084E0133
:10504000B5004001B0313C204D01E9016914D11D8A
:105050006910E914511EE910EA01E80133304D01ED
:105060006802A8314001031886284D0169086A02C8
:10507000A8314001031D5E284D0168089F3E840051
:1050800023308501853D4E013B0880004D01680AB3
:105090009F3E840023308501853D4E013908800004
:1050A00002304D0168079F3E840023308501853D15
:1050B0004E013A0880004001A83175284D0168086A
:1050C0009F3E840023308501853D8001680A9F3E14
:1050D000840023308501853D8001023068079F3EB2
:1050E000840023308501853D80014D01EA0A0430AA
:1050F0006A02A8314001031C7F284D01EA010330F8
:105100004D01E807A8314001031C2E284D0152082B
:105110005104A8314001031D8F284D01D5014D01D7
:105120003330A9002430AA004001AF31322F0230C1
:105130004D015502A9314001031DAE294D01D20890
:10514000031D063240305102A8314001031CAF2834
:1051500040019531542595316125A931AB294D0187
:1051600052085104A8314001031DBA284D01D20153
:105170003F30D1004D01510E0F39EB006B08E900B3
:10518000E80133304D016802A931400103181729A5
:105190004D01E908A8314001031DF4284D016808BC
:1051A0009F3E840023308501853D4E013B088000F1
:1051B0004D01680A9F3E840023308501853D4E01E4
:1051C0003908800002304D0168079F3E840023307B
:1051D0008501853D4E013A0880004D01EA01043009
:1051E000E9004001A9310B294D0168089F3E840068
:1051F00023308501853D8001680A9F3E840023306D
:105200008501853D8001023068079F3E8400233080
:105210008501853D800101304D01E9020030EA3B06
:1052200003304D01E807A8314001031CC1280F30AD
:105230004D015105E90000305205EA006A08690491
:10524000A9314001031DA6294D01E80124304D017B
:105250006802A93140010318A6298031D220A70095
:105260004808A800033027054D01E900003040013F
:1052700028054D01EA0069036A04A9314001031DB4
:1052800063294D016808DB3E840023308501853D9C
:105290004E013B0880004D01680ADB3E840023304C
:1052A0008501853D4E013908800002304D016807B7
:1052B000DB3E840023308501853D4E013A088000A5
:1052C0004001A9319F294D016908023A6A04A931B8
:1052D0004001031D88294D016808DB3E840023300E
:1052E0008501853DC8308000680ADB3E840023309C
:1052F0008501853DC830800002306807DB3E8400B0
:1053000023308501853DC83080004001A9319F29A7
:105310004D016808DB3E840023308501853D800116
:10532000680ADB3E840023308501853D8001023020
:105330006807DB3E840023308501853D8001033012
:105340004D01E807A9314001031C26294D013330E6
:10535000A9002430AA004001AF31322F03304D01A3
:105360005502AA314001031D562A02304D01520256
:10537000A9314001031CCC29031D073201304D0126
:105380005102A9314001031CCC294001953154251B
:1053900095316125AA31542A4D0152085104A93191
:1053A0004001031DD8294D010130D200FF30D1004A
:1053B0004001AF313527B0313C200F304D01510550
:1053C000E90000305205EA006A086904AA31400188
:1053D000031D002A70304D015105E90000305205CF
:1053E000EA00690E0F39E900A93151084001891F0F
:1053F000FD294D016908073CE9004001AF316A27EA
:105400003F304D015105E900E908AA314001031D73
:10541000532A97317A274E01FA30B5004001B03156
:105420003C204E013108DB3E840023308501853D60
:105430003B08800012303107DB3E840023308501B9
:10544000853D3B088000B10A3108DB3E84002330F3
:105450008501853D3908800012303107DB3E84002C
:1054600023308501853D39088000B10A3108DB3ED3
:10547000840023308501853D3A08800012303107D1
:10548000DB3E840023308501853D3A088000B10A67
:1054900012303102AA314001031C502A4E01B101E1
:1054A0004D012430AA004001AF31322F05304D01AB
:1054B0005502AB314001031D022B4D01520851042E
:1054C000AA314001031D692A4D010130D200FF308D
:1054D000D10007304D015105E90000305205EA00C6
:1054E0006A086904AA314001031DFF2A38304D01C2
:1054F0005105E90000305205EA00E936E936E9369F
:10550000AA3151084001091F9C2A4D016908073C36
:10551000E9004601323584008501850D233084077A
:105520002430853D00084E01B2001000B300FF306A
:10553000B4004001AA319E2AAF313527B0313C205A
:10554000AF316A2797317A278031D2204D01E900A7
:10555000400148084D01EA00E80124304D0168028D
:10556000AA3140010318FC2AAA314D016908400103
:10557000091CBE2AAF313527AA31CE2A4601323561
:1055800084008501850D233084072430853D000883
:105590004E01B2001000B300FF30B4004001803172
:1055A000D2204E01B5004001B0313C204D016808C9
:1055B000DB3E840023308501853D4E013B088000A1
:1055C0004D01680ADB3E840023308501853D4E0194
:1055D0003908800002304D016807DB3E840023302B
:1055E0008501853D4E013A08800003304D01E807F2
:1055F000AA314001031CAD2A4D012430AA0040010C
:10560000AF31322F06304D015502AC314001031D40
:10561000772CD3114D01D208031D063241305102BF
:10562000AB314001031C332B4D01D208AB3140019B
:10563000031D332B81304D015102AB314001031862
:10564000332B0F304D0151054001A70000304D01B3
:1056500052054001A80028082704AB31031D312B57
:10566000D315AB31B92B4D01D208031D0632813061
:105670005102AB314001031C5C2B4D01D208AB3110
:105680004001031D5C2BC1304D015102AB31400183
:1056900003185C2B07304D0151054001A700003075
:1056A0004D0152054001A80028082704AB31031D15
:1056B0005A2BD315AB31B92B4D01D208031D06323D
:1056C000C1305102AB314001031C892B01304D0127
:1056D0005202AB314001031C772BAB31031D892BE8
:1056E00043304D015102AB3140010318892B033087
:1056F0004D0151054001A70000304D015205400108
:10570000A80028082704AB31031D872BD315AB3124
:10571000B92B01304D015202AB314001031CB32BB8
:10572000031D073241304D015102AB314001031CD2
:10573000B32B01304D015202AB314001031CAA2BA7
:10574000AB31031DB32BE9304D015102AB314001A8
:105750000318B32BAB314D0151084001091CB12B8B
:10576000D315AB31B82B97316F274D013330A900DA
:105770004001AB31D31DD12B02304E013502AB318C
:1057800040010318C62B4E010230B5004E01B5038F
:10579000B5034001B0313C20973185274D013330AE
:1057A000A90007304D0151054001A70000304D010F
:1057B00052054001A80028082704AC31031D692CBC
:1057C0004D012430AA0040018031D2204D01E90072
:1057D000400148084D01EA000C304D016A02AB312E
:1057E0004001031CF82B0C304D01EA024001F43358
:1057F0000C304D016902AC314001031C042C0C300B
:105800004D01E9024001F4334D016935E9076A357C
:10581000EA07E80124304D016802AC314001031869
:10582000692C4D0168086A0203190130031D00301C
:105830004001CA004D016808690203190130031DC7
:1058400000304001CA04AC310319432C4D016808F3
:10585000DB3E840023308501853DFF308000680AEF
:10586000DB3E840023308501853DFF30800002301F
:105870006807DB3E840023308501853DFF308000D2
:105880004001AC31622C4D016808DB3E84002330BE
:105890008501853D4E01300880004D01680ADB3EE0
:1058A000840023308501853D4E012E0880000230A2
:1058B0004D016807DB3E840023308501853D4E01A4
:1058C0002F08800003304D01E807AC314001031C74
:1058D0000A2C4D0152085104AC314001031D742CB7
:1058E0004D01D2014030D1004001AF31322F07309D
:1058F0004D015502AD314001031D322D4D015208BD
:105900005104AC314001031D9B2C4D01EA013208CA
:10591000E900690DD1006A0DD200D10DD20DD10D73
:10592000D20DD10DD20DD10DD20DE030D105013007
:10593000D1020030D23B4D01520CEA00510CE9007B
:10594000EA0CE90CEA0CE90CEA0CE90CEA0CE90CAB
:105950000730EA05E90A4E01FF30B400B430B50063
:105960004D0169083202AC3140010318BA2C4D01D7
:105970003208E9004D01E80133304D016802AD31D4
:10598000400103182A2D4D01693584008501850DDC
:10599000233084072430853D00084E01B2001000FA
:1059A000B3004001B0313C204D0168089F3E8400A7
:1059B00023308501853D4E013B0880004D01680A7A
:1059C0009F3E840023308501853D4E0139088000CB
:1059D00002304D0168079F3E840023308501853DDC
:1059E0004E013A08800024304D016802AD3140017B
:1059F0000318192D4D016808DB3E84002330850112
:105A0000853D4E013B0880004D01680ADB3E840065
:105A100023308501853D4E013908800002304D015B
:105A20006807DB3E840023308501853D4E013A083E
:105A300080004D01E903E908AD314001031D232D2C
:105A40004D013208E90003304D01E807AC31400157
:105A5000031CBC2C4D013330A9002430AA004001A6
:105A6000AF31322F08304D015502AE314001031DD8
:105A7000292E4D0152085104AD314001031D442D22
:105A80004D01D201C830D1004D0151084E01B50081
:105A9000C808AD314001031D4F2D0301031D013026
:105AA000CA0064304E014802013003180030400142
:105AB000CA05AD310319BE2D4E01FF30BB00BA013E
:105AC000B90140019731B527973185270A304E013A
:105AD0004802AD314001031DBC2D4E01BB01FF301A
